{
  "contractName": "SWEETTokenSale",
  "abi": [
    {
      "inputs": [
        {
          "internalType": "contract SWEETToken",
          "name": "_tokenContract",
          "type": "address"
        },
        {
          "internalType": "uint256",
          "name": "_tokenPrice",
          "type": "uint256"
        }
      ],
      "stateMutability": "nonpayable",
      "type": "constructor"
    },
    {
      "anonymous": false,
      "inputs": [
        {
          "indexed": false,
          "internalType": "address",
          "name": "_buyer",
          "type": "address"
        },
        {
          "indexed": false,
          "internalType": "uint256",
          "name": "_amount",
          "type": "uint256"
        }
      ],
      "name": "Sell",
      "type": "event"
    },
    {
      "inputs": [],
      "name": "admin",
      "outputs": [
        {
          "internalType": "address",
          "name": "",
          "type": "address"
        }
      ],
      "stateMutability": "view",
      "type": "function",
      "constant": true
    },
    {
      "inputs": [],
      "name": "tokenContract",
      "outputs": [
        {
          "internalType": "contract SWEETToken",
          "name": "",
          "type": "address"
        }
      ],
      "stateMutability": "view",
      "type": "function",
      "constant": true
    },
    {
      "inputs": [],
      "name": "tokenPrice",
      "outputs": [
        {
          "internalType": "uint256",
          "name": "",
          "type": "uint256"
        }
      ],
      "stateMutability": "view",
      "type": "function",
      "constant": true
    },
    {
      "inputs": [],
      "name": "tokensAvailable",
      "outputs": [
        {
          "internalType": "uint256",
          "name": "",
          "type": "uint256"
        }
      ],
      "stateMutability": "view",
      "type": "function",
      "constant": true
    },
    {
      "inputs": [],
      "name": "tokensSold",
      "outputs": [
        {
          "internalType": "uint256",
          "name": "",
          "type": "uint256"
        }
      ],
      "stateMutability": "view",
      "type": "function",
      "constant": true
    },
    {
      "inputs": [
        {
          "internalType": "uint256",
          "name": "_numberOfTokens",
          "type": "uint256"
        }
      ],
      "name": "buyTokens",
      "outputs": [],
      "stateMutability": "payable",
      "type": "function",
      "payable": true
    }
  ],
  "bytecode": "0x608060405234801561001057600080fd5b506040516105053803806105058339818101604052810190610032919061016c565b336000806101000a81548173ffffffffffffffffffffffffffffffffffffffff021916908373ffffffffffffffffffffffffffffffffffffffff1602179055508060018190555081600260006101000a81548173ffffffffffffffffffffffffffffffffffffffff021916908373ffffffffffffffffffffffffffffffffffffffff16021790555050506101ac565b600080fd5b600073ffffffffffffffffffffffffffffffffffffffff82169050919050565b60006100f1826100c6565b9050919050565b6000610103826100e6565b9050919050565b610113816100f8565b811461011e57600080fd5b50565b6000815190506101308161010a565b92915050565b6000819050919050565b61014981610136565b811461015457600080fd5b50565b60008151905061016681610140565b92915050565b60008060408385031215610183576101826100c1565b5b600061019185828601610121565b92505060206101a285828601610157565b9150509250929050565b61034a806101bb6000396000f3fe6080604052600436106100555760003560e01c80633610724e1461005a578063518ab2a81461007657806355a373d6146100a157806360659a92146100cc5780637ff9b596146100f7578063f851a44014610122575b600080fd5b610074600480360381019061006f91906101e7565b61014d565b005b34801561008257600080fd5b5061008b610150565b6040516100989190610223565b60405180910390f35b3480156100ad57600080fd5b506100b6610156565b6040516100c391906102bd565b60405180910390f35b3480156100d857600080fd5b506100e161017c565b6040516100ee9190610223565b60405180910390f35b34801561010357600080fd5b5061010c610182565b6040516101199190610223565b60405180910390f35b34801561012e57600080fd5b50610137610188565b60405161014491906102f9565b60405180910390f35b50565b60035481565b600260009054906101000a900473ffffffffffffffffffffffffffffffffffffffff1681565b60045481565b60015481565b60008054906101000a900473ffffffffffffffffffffffffffffffffffffffff1681565b600080fd5b6000819050919050565b6101c4816101b1565b81146101cf57600080fd5b50565b6000813590506101e1816101bb565b92915050565b6000602082840312156101fd576101fc6101ac565b5b600061020b848285016101d2565b91505092915050565b61021d816101b1565b82525050565b60006020820190506102386000830184610214565b92915050565b600073ffffffffffffffffffffffffffffffffffffffff82169050919050565b6000819050919050565b600061028361027e6102798461023e565b61025e565b61023e565b9050919050565b600061029582610268565b9050919050565b60006102a78261028a565b9050919050565b6102b78161029c565b82525050565b60006020820190506102d260008301846102ae565b92915050565b60006102e38261023e565b9050919050565b6102f3816102d8565b82525050565b600060208201905061030e60008301846102ea565b9291505056fea26469706673582212204616a417324970ba45c3ac3f83b3497041e746933f10bb9a2abc01ec7966dd8f64736f6c634300080f0033",
  "immutableReferences": {},
  "source": "//SPDX-License-Identifier:MIT\n\npragma solidity >=0.4.0 <0.9.0;\n\nimport './SWEETToken.sol';\n\ncontract SWEETTokenSale{ \n\n    address public admin;\n    uint256 public tokenPrice;\n    SWEETToken public tokenContract;\n    uint256 public tokensSold;\n    uint256 public tokensAvailable;\n\n    event Sell(\n        address _buyer,\n        uint256 _amount\n    );\n\n    constructor (SWEETToken _tokenContract, uint256 _tokenPrice) {\n        admin = msg.sender;\n        tokenPrice = _tokenPrice;\n        tokenContract = _tokenContract;\n    }\n\n    function multiply(uint x,uint y) internal pure returns (uint z){\n        require( y == 0 || (z = x * y ) / y == x);\n    }\n\n    function buyTokens(uint256 _numberOfTokens) public payable {\n\n        // require(msg.value == multiply(_numberOfTokens,tokenPrice));\n        // require(tokenContract.balanceOf(address(this))>=_numberOfTokens);\n        // require(tokenContract.transfer(msg.sender,_numberOfTokens));\n\n        // tokensSold += _numberOfTokens;\n        // emit Sell(msg.sender,_numberOfTokens);\n    }\n\n\n\n}",
  "sourcePath": "/home/shubham/Js/GitHub/ICO-Cryptocurrency-Website/contracts/SWEETTokenSale.sol",
  "compiler": {
    "name": "solc",
    "version": "0.8.15+commit.e14f2714.Emscripten.clang"
  },
  "schemaVersion": "3.4.7",
  "updatedAt": "2022-06-26T04:21:42.154Z",
  "networkType": "ethereum",
  "devdoc": {
    "kind": "dev",
    "methods": {},
    "version": 1
  },
  "userdoc": {
    "kind": "user",
    "methods": {},
    "version": 1
  }
}